{
  "contractName": "PollContract",
  "abi": [
    {
      "inputs": [
        {
          "internalType": "contract UserContract",
          "name": "_addrUserContract",
          "type": "address"
        }
      ],
      "stateMutability": "nonpayable",
      "type": "constructor"
    },
    {
      "stateMutability": "payable",
      "type": "receive"
    },
    {
      "inputs": [
        {
          "internalType": "string",
          "name": "title",
          "type": "string"
        },
        {
          "internalType": "string",
          "name": "description",
          "type": "string"
        },
        {
          "internalType": "uint256",
          "name": "creationDate",
          "type": "uint256"
        },
        {
          "internalType": "string",
          "name": "imageURL",
          "type": "string"
        },
        {
          "internalType": "string",
          "name": "question",
          "type": "string"
        },
        {
          "internalType": "string[]",
          "name": "answerOptions",
          "type": "string[]"
        }
      ],
      "name": "createPoll",
      "outputs": [
        {
          "internalType": "bool",
          "name": "",
          "type": "bool"
        }
      ],
      "stateMutability": "nonpayable",
      "type": "function"
    },
    {
      "inputs": [
        {
          "internalType": "uint256",
          "name": "id",
          "type": "uint256"
        },
        {
          "internalType": "uint256",
          "name": "optionSelected",
          "type": "uint256"
        }
      ],
      "name": "answerPoll",
      "outputs": [
        {
          "internalType": "bool",
          "name": "",
          "type": "bool"
        }
      ],
      "stateMutability": "nonpayable",
      "type": "function"
    },
    {
      "inputs": [
        {
          "internalType": "uint256",
          "name": "id",
          "type": "uint256"
        }
      ],
      "name": "getPollResults",
      "outputs": [
        {
          "components": [
            {
              "internalType": "uint256[]",
              "name": "results",
              "type": "uint256[]"
            }
          ],
          "internalType": "struct PollContract.Result",
          "name": "",
          "type": "tuple"
        }
      ],
      "stateMutability": "view",
      "type": "function"
    },
    {
      "inputs": [
        {
          "internalType": "uint256",
          "name": "id",
          "type": "uint256"
        }
      ],
      "name": "getPollById",
      "outputs": [
        {
          "components": [
            {
              "internalType": "uint256",
              "name": "id",
              "type": "uint256"
            },
            {
              "internalType": "bool",
              "name": "created",
              "type": "bool"
            },
            {
              "internalType": "address",
              "name": "creator",
              "type": "address"
            },
            {
              "internalType": "string",
              "name": "title",
              "type": "string"
            },
            {
              "internalType": "string",
              "name": "description",
              "type": "string"
            },
            {
              "internalType": "uint256",
              "name": "creationDate",
              "type": "uint256"
            },
            {
              "internalType": "string",
              "name": "imageURL",
              "type": "string"
            },
            {
              "internalType": "string",
              "name": "question",
              "type": "string"
            },
            {
              "internalType": "string[]",
              "name": "answerOptions",
              "type": "string[]"
            }
          ],
          "internalType": "struct PollContract.Poll",
          "name": "",
          "type": "tuple"
        }
      ],
      "stateMutability": "view",
      "type": "function"
    },
    {
      "inputs": [
        {
          "internalType": "uint256",
          "name": "id",
          "type": "uint256"
        }
      ],
      "name": "deletePoll",
      "outputs": [
        {
          "internalType": "bool",
          "name": "",
          "type": "bool"
        }
      ],
      "stateMutability": "nonpayable",
      "type": "function"
    },
    {
      "inputs": [],
      "name": "getAllPolls",
      "outputs": [
        {
          "components": [
            {
              "internalType": "uint256",
              "name": "id",
              "type": "uint256"
            },
            {
              "internalType": "bool",
              "name": "created",
              "type": "bool"
            },
            {
              "internalType": "address",
              "name": "creator",
              "type": "address"
            },
            {
              "internalType": "string",
              "name": "title",
              "type": "string"
            },
            {
              "internalType": "string",
              "name": "description",
              "type": "string"
            },
            {
              "internalType": "uint256",
              "name": "creationDate",
              "type": "uint256"
            },
            {
              "internalType": "string",
              "name": "imageURL",
              "type": "string"
            },
            {
              "internalType": "string",
              "name": "question",
              "type": "string"
            },
            {
              "internalType": "string[]",
              "name": "answerOptions",
              "type": "string[]"
            }
          ],
          "internalType": "struct PollContract.Poll[]",
          "name": "",
          "type": "tuple[]"
        }
      ],
      "stateMutability": "view",
      "type": "function"
    },
    {
      "inputs": [],
      "name": "getTotalPolls",
      "outputs": [
        {
          "internalType": "uint256",
          "name": "",
          "type": "uint256"
        }
      ],
      "stateMutability": "view",
      "type": "function"
    }
  ],
  "bytecode": "0x6080604052600160055534801561001557600080fd5b50604051611e27380380611e2783398101604081905261003491610059565b60008054600160a060020a031916600160a060020a0392909216919091179055610089565b60006020828403121561006b57600080fd5b8151600160a060020a038116811461008257600080fd5b9392505050565b611d8f806100986000396000f3fe608060405260043610610091576000357c0100000000000000000000000000000000000000000000000000000000900480633ef87d541161006b5780633ef87d54146101245780639bdf5a3414610142578063d4bc5e9114610162578063de50940d1461018f57600080fd5b80631f35b51d146100a057806332b633fa146100d557806333b4097b146100f757600080fd5b3661009b57600080fd5b600080fd5b3480156100ac57600080fd5b506100c06100bb366004611900565b6101af565b60405190151581526020015b60405180910390f35b3480156100e157600080fd5b506100ea6103e0565b6040516100cc9190611a8a565b34801561010357600080fd5b50610117610112366004611900565b61079d565b6040516100cc9190611b62565b34801561013057600080fd5b506004546040519081526020016100cc565b34801561014e57600080fd5b506100c061015d366004611654565b610876565b34801561016e57600080fd5b5061018261017d366004611900565b610be4565b6040516100cc9190611b48565b34801561019b57600080fd5b506100c06101aa366004611919565b61102f565b6000806101bd600184611c57565b6000546040517f17f23b2e000000000000000000000000000000000000000000000000000000008152336004820152919250600160a060020a0316906317f23b2e9060240160006040518083038186803b15801561021a57600080fd5b505afa15801561022e573d6000803e3d6000fd5b505050506040513d6000823e601f3d908101601f19168201604052610256919081019061172e565b6060015115156001146102b35760405160e560020a62461bcd02815260206004820152601960248201527f557365722068617320746f20626520726567697374657265640000000000000060448201526064015b60405180910390fd5b600181815481106102c6576102c6611d27565b60009182526020909120600160089092020181015460ff161515146103005760405160e560020a62461bcd0281526004016102aa90611aeb565b6001818154811061031357610313611d27565b60009182526020822060089091020181815560018101805474ffffffffffffffffffffffffffffffffffffffffff19169055906103536002830182611294565b610361600383016000611294565b60048201600090556005820160006103799190611294565b610387600683016000611294565b6103956007830160006112d1565b5050600083815260026020908152604080832060010183905560039091528120906103c082826112ef565b5050600480549060006103d283611c9e565b909155506001949350505050565b60606001805480602002602001604051908101604052809291908181526020016000905b8282101561079457600084815260209081902060408051610120810182526008860290920180548352600181015460ff8116151594840194909452610100909304600160a060020a03169082015260028201805491929160608401919061046a90611cb5565b80601f016020809104026020016040519081016040528092919081815260200182805461049690611cb5565b80156104e35780601f106104b8576101008083540402835291602001916104e3565b820191906000526020600020905b8154815290600101906020018083116104c657829003601f168201915b505050505081526020016003820180546104fc90611cb5565b80601f016020809104026020016040519081016040528092919081815260200182805461052890611cb5565b80156105755780601f1061054a57610100808354040283529160200191610575565b820191906000526020600020905b81548152906001019060200180831161055857829003601f168201915b505050505081526020016004820154815260200160058201805461059890611cb5565b80601f01602080910402602001604051908101604052809291908181526020018280546105c490611cb5565b80156106115780601f106105e657610100808354040283529160200191610611565b820191906000526020600020905b8154815290600101906020018083116105f457829003601f168201915b5050505050815260200160068201805461062a90611cb5565b80601f016020809104026020016040519081016040528092919081815260200182805461065690611cb5565b80156106a35780601f10610678576101008083540402835291602001916106a3565b820191906000526020600020905b81548152906001019060200180831161068657829003601f168201915b5050505050815260200160078201805480602002602001604051908101604052809291908181526020016000905b8282101561077d5783829060005260206000200180546106f090611cb5565b80601f016020809104026020016040519081016040528092919081815260200182805461071c90611cb5565b80156107695780601f1061073e57610100808354040283529160200191610769565b820191906000526020600020905b81548152906001019060200180831161074c57829003601f168201915b5050505050815260200190600101906106d1565b505050508152505081526020019060010190610404565b50505050905090565b60408051602081019091526060815260006107b9600184611c57565b9050600181815481106107ce576107ce611d27565b60009182526020909120600160089092020181015460ff161515146108085760405160e560020a62461bcd0281526004016102aa90611aeb565b6000838152600360209081526040918290208251815480840282018501855292810183815290939192849284919084018282801561086557602002820191906000526020600020905b815481526020019060010190808311610851575b505050505081525050915050919050565b600080546040517f17f23b2e000000000000000000000000000000000000000000000000000000008152336004820152600160a060020a03909116906317f23b2e9060240160006040518083038186803b1580156108d357600080fd5b505afa1580156108e7573d6000803e3d6000fd5b505050506040513d6000823e601f3d908101601f1916820160405261090f919081019061172e565b60600151151560011461098d5760405160e560020a62461bcd02815260206004820152602160248201527f557365722068617320746f206265206120726567697374657265642061646d6960448201527f6e0000000000000000000000000000000000000000000000000000000000000060648201526084016102aa565b604080516101208101825260055481526001602080830182815233948401948552606084018c8152608085018c905260a085018b905260c085018a905260e085018990526101008086018990528454808601865560009590955285517fb10e2d527612073b26eecdfd717e6a320cf44b4afac2b0732d9fcbe2b7fa0cf6600890960295860190815592517fb10e2d527612073b26eecdfd717e6a320cf44b4afac2b0732d9fcbe2b7fa0cf786018054985174ffffffffffffffffffffffffffffffffffffffffff1990991691151574ffffffffffffffffffffffffffffffffffffffff00191691909117600160a060020a039098169091029690961790955593518051939493610ac4937fb10e2d527612073b26eecdfd717e6a320cf44b4afac2b0732d9fcbe2b7fa0cf80192919091019061130d565b5060808201518051610ae091600384019160209091019061130d565b5060a0820151600482015560c08201518051610b0691600584019160209091019061130d565b5060e08201518051610b2291600684019160209091019061130d565b506101008201518051610b3f916007840191602090910190611391565b50506004805491506000610b5283611cf3565b9190505550815167ffffffffffffffff811115610b7157610b71611d40565b604051908082528060200260200182016040528015610b9a578160200160208202803683370190505b5060055460009081526003602090815260409091208251610bc193919291909101906113ea565b5060058054906000610bd283611cf3565b90915550600198975050505050505050565b610c3e604051806101200160405280600081526020016000151581526020016000600160a060020a031681526020016060815260200160608152602001600081526020016060815260200160608152602001606081525090565b6000610c4b600184611c57565b905060018181548110610c6057610c60611d27565b60009182526020909120600160089092020181015460ff16151514610c9a5760405160e560020a62461bcd0281526004016102aa90611aeb565b60018181548110610cad57610cad611d27565b6000918252602091829020604080516101208101825260089390930290910180548352600181015460ff8116151594840194909452610100909304600160a060020a031690820152600282018054919291606084019190610d0d90611cb5565b80601f0160208091040260200160405190810160405280929190818152602001828054610d3990611cb5565b8015610d865780601f10610d5b57610100808354040283529160200191610d86565b820191906000526020600020905b815481529060010190602001808311610d6957829003601f168201915b50505050508152602001600382018054610d9f90611cb5565b80601f0160208091040260200160405190810160405280929190818152602001828054610dcb90611cb5565b8015610e185780601f10610ded57610100808354040283529160200191610e18565b820191906000526020600020905b815481529060010190602001808311610dfb57829003601f168201915b5050505050815260200160048201548152602001600582018054610e3b90611cb5565b80601f0160208091040260200160405190810160405280929190818152602001828054610e6790611cb5565b8015610eb45780601f10610e8957610100808354040283529160200191610eb4565b820191906000526020600020905b815481529060010190602001808311610e9757829003601f168201915b50505050508152602001600682018054610ecd90611cb5565b80601f0160208091040260200160405190810160405280929190818152602001828054610ef990611cb5565b8015610f465780601f10610f1b57610100808354040283529160200191610f46565b820191906000526020600020905b815481529060010190602001808311610f2957829003601f168201915b5050505050815260200160078201805480602002602001604051908101604052809291908181526020016000905b82821015611020578382906000526020600020018054610f9390611cb5565b80601f0160208091040260200160405190810160405280929190818152602001828054610fbf90611cb5565b801561100c5780601f10610fe15761010080835404028352916020019161100c565b820191906000526020600020905b815481529060010190602001808311610fef57829003601f168201915b505050505081526020019060010190610f74565b50505091525090949350505050565b60008061103d600185611c57565b6000546040517ff8b8393c000000000000000000000000000000000000000000000000000000008152336004820152919250600160a060020a03169063f8b8393c9060240160006040518083038186803b15801561109a57600080fd5b505afa1580156110ae573d6000803e3d6000fd5b505050506040513d6000823e601f3d908101601f191682016040526110d69190810190611805565b60600151151560011461112e5760405160e560020a62461bcd02815260206004820152601960248201527f557365722068617320746f20626520726567697374657265640000000000000060448201526064016102aa565b6001818154811061114157611141611d27565b60009182526020909120600160089092020181015460ff1615151461117b5760405160e560020a62461bcd0281526004016102aa90611aeb565b600084815260026020908152604080832033845290915290205460ff161561120e5760405160e560020a62461bcd02815260206004820152602f60248201527f54686520506f6c6c2068617320616c7265616479206265656e20616e7377657260448201527f656420627920746869732075736572000000000000000000000000000000000060648201526084016102aa565b6000848152600260208181526040808420338552808352908420805460ff19166001908117909155888552929091520180549161124a83611cf3565b9091555050600084815260036020526040902080548490811061126f5761126f611d27565b6000918252602082200180549161128583611cf3565b90915550600195945050505050565b5080546112a090611cb5565b6000825580601f106112b0575050565b601f0160209004906000526020600020908101906112ce9190611424565b50565b50805460008255906000526020600020908101906112ce9190611439565b50805460008255906000526020600020908101906112ce9190611424565b82805461131990611cb5565b90600052602060002090601f01602090048101928261133b5760008555611381565b82601f1061135457805160ff1916838001178555611381565b82800160010185558215611381579182015b82811115611381578251825591602001919060010190611366565b5061138d929150611424565b5090565b8280548282559060005260206000209081019282156113de579160200282015b828111156113de57825180516113ce91849160209091019061130d565b50916020019190600101906113b1565b5061138d929150611439565b8280548282559060005260206000209081019282156113815791602002820182811115611381578251825591602001919060010190611366565b5b8082111561138d5760008155600101611425565b8082111561138d57600061144d8282611294565b50600101611439565b600082601f83011261146757600080fd5b8135602067ffffffffffffffff8083111561148457611484611d40565b818302611492838201611bfe565b8481528381019087850183890186018a10156114ad57600080fd5b60009350835b878110156114ea578135868111156114c9578586fd5b6114d78c89838e010161151d565b85525092860192908601906001016114b3565b50909998505050505050505050565b8051801515811461150957600080fd5b919050565b80516002811061150957600080fd5b600082601f83011261152e57600080fd5b813561154161153c82611c2f565b611bfe565b81815284602083860101111561155657600080fd5b816020850160208301376000918101602001919091529392505050565b600082601f83011261158457600080fd5b815161159261153c82611c2f565b8181528460208386010111156115a757600080fd5b6115b8826020830160208701611c6e565b949350505050565b6000606082840312156115d257600080fd5b6040516060810167ffffffffffffffff82821081831117156115f6576115f6611d40565b81604052829350845191508082111561160e57600080fd5b61161a86838701611573565b8352602085015191508082111561163057600080fd5b5061163d85828601611573565b602083015250604083015160408201525092915050565b60008060008060008060c0878903121561166d57600080fd5b863567ffffffffffffffff8082111561168557600080fd5b6116918a838b0161151d565b975060208901359150808211156116a757600080fd5b6116b38a838b0161151d565b96506040890135955060608901359150808211156116d057600080fd5b6116dc8a838b0161151d565b945060808901359150808211156116f257600080fd5b6116fe8a838b0161151d565b935060a089013591508082111561171457600080fd5b5061172189828a01611456565b9150509295509295509295565b60006020828403121561174057600080fd5b815167ffffffffffffffff8082111561175857600080fd5b9083019060a0828603121561176c57600080fd5b611774611bb2565b82518281111561178357600080fd5b61178f87828601611573565b8252506020830151828111156117a457600080fd5b6117b087828601611573565b6020830152506040830151828111156117c857600080fd5b6117d487828601611573565b6040830152506117e6606084016114f9565b60608201526117f76080840161150e565b608082015295945050505050565b60006020828403121561181757600080fd5b815167ffffffffffffffff8082111561182f57600080fd5b9083019060c0828603121561184357600080fd5b61184b611bdb565b82518281111561185a57600080fd5b61186687828601611573565b82525060208301518281111561187b57600080fd5b61188787828601611573565b60208301525060408301518281111561189f57600080fd5b6118ab87828601611573565b6040830152506118bd606084016114f9565b60608201526118ce6080840161150e565b608082015260a0830151828111156118e557600080fd5b6118f1878286016115c0565b60a08301525095945050505050565b60006020828403121561191257600080fd5b5035919050565b6000806040838503121561192c57600080fd5b50508035926020909101359150565b6000828251808552602080860195508081830284010181860160005b8481101561198557601f19868403018952611973838351611992565b98840198925090830190600101611957565b5090979650505050505050565b600081518084526119aa816020860160208601611c6e565b601f01601f19169290920160200192915050565b60006101208251845260208301516119da602086018215159052565b5060408301516119f56040860182600160a060020a03169052565b506060830151816060860152611a0d82860182611992565b91505060808301518482036080860152611a278282611992565b91505060a083015160a085015260c083015184820360c0860152611a4b8282611992565b91505060e083015184820360e0860152611a658282611992565b9150506101008084015185830382870152611a80838261193b565b9695505050505050565b600060208083018184528085518083526040860191506040848202870101925083870160005b82811015611ade57603f19888603018452611acc8583516119be565b94509285019290850190600101611ab0565b5092979650505050505050565b60208082526021908201527f54686520506f6c6c2072657175657374656420646f6573206e6f74206578697360408201527f7400000000000000000000000000000000000000000000000000000000000000606082015260800190565b602081526000611b5b60208301846119be565b9392505050565b6020808252825182820182905280516040840181905260009291820190839060608601905b80831015611ba75783518252928401926001929092019190840190611b87565b509695505050505050565b60405160a0810167ffffffffffffffff81118282101715611bd557611bd5611d40565b60405290565b60405160c0810167ffffffffffffffff81118282101715611bd557611bd5611d40565b604051601f8201601f1916810167ffffffffffffffff81118282101715611c2757611c27611d40565b604052919050565b600067ffffffffffffffff821115611c4957611c49611d40565b50601f01601f191660200190565b600082821015611c6957611c69611d0e565b500390565b60005b83811015611c89578181015183820152602001611c71565b83811115611c98576000848401525b50505050565b600081611cad57611cad611d0e565b506000190190565b600281046001821680611cc957607f821691505b60208210811415611ced5760e060020a634e487b7102600052602260045260246000fd5b50919050565b6000600019821415611d0757611d07611d0e565b5060010190565b60e060020a634e487b7102600052601160045260246000fd5b60e060020a634e487b7102600052603260045260246000fd5b60e060020a634e487b7102600052604160045260246000fdfea2646970667358221220c8da7a65e69908fc4c88a49175da6cf4067c16eb08e817830290b4125a15f85164736f6c63430008070033",
  "immutableReferences": {},
  "source": "// SPDX-License-Identifier: GPL-3.0\r\npragma solidity >=0.8.0 <0.9.0;\r\n\r\nimport \"./2_User.sol\";\r\n\r\ncontract PollContract {\r\n\r\n    UserContract private userContract_ref;\r\n\r\n    constructor(UserContract _addrUserContract) {\r\n        userContract_ref = _addrUserContract;\r\n    }\r\n\r\n    struct Poll {\r\n        uint id;\r\n        bool created;\r\n        address creator;\r\n        string title;\r\n        string description;\r\n        uint creationDate;\r\n        string imageURL;\r\n        string question;\r\n        string[] answerOptions;\r\n    }\r\n\r\n    struct PollAnswer {\r\n        mapping(address => UserAnswer) answers;\r\n        uint total_answers;\r\n    }\r\n\r\n    struct UserAnswer {\r\n        // uint answerOptionSelected;\r\n        bool answered;\r\n    }\r\n\r\n    //Poll.id => index array polls\r\n    Poll[] polls;\r\n    //Poll.id => PollAnswer\r\n    mapping(uint => PollAnswer) pollAnswers;\r\n    //Poll.id => array with sum of answers each answer. [2,3,3] -> First answer has 2 votes, second 3 and third 3\r\n    mapping(uint => Result) pollResults;\r\n    struct Result {\r\n        uint[] results;\r\n    }\r\n\r\n    uint total_polls;\r\n    uint polls_id_increment = 1;\r\n\r\n\r\n    function createPoll(string memory title, string memory description, uint creationDate, string memory imageURL, string memory question, string[] memory answerOptions) external returns (bool){\r\n        require(userContract_ref.getAdminUser(msg.sender).registered == true,\"User has to be a registered admin\");\r\n\r\n        polls.push(Poll(polls_id_increment, true, msg.sender, title, description, creationDate, imageURL, question, answerOptions));\r\n        total_polls ++;\r\n        //Init results array\r\n        pollResults[polls_id_increment].results = new uint[](answerOptions.length);\r\n        polls_id_increment ++;\r\n        return true;\r\n    }\r\n\r\n    function answerPoll(uint id, uint optionSelected) external returns (bool){\r\n        uint index = id -1;\r\n        require(userContract_ref.getClientUser(msg.sender).registered == true,\"User has to be registered\");\r\n        require(polls[index].created == true,\"The Poll requested does not exist\");\r\n        require(pollAnswers[id].answers[msg.sender].answered == false,\"The Poll has already been answered by this user\");\r\n\r\n        // pollAnswers[id].answers[msg.sender].answerOptionSelected = optionSelected;\r\n        pollAnswers[id].answers[msg.sender].answered = true;\r\n        pollAnswers[id].total_answers ++;\r\n\r\n        //Recalculate result\r\n        pollResults[id].results[optionSelected] ++;\r\n        return true;\r\n    }\r\n\r\n    function getPollResults(uint id) public view returns (Result memory){\r\n        uint index = id -1;\r\n        require(polls[index].created == true,\"The Poll requested does not exist\");\r\n        return pollResults[id];\r\n    }\r\n\r\n    function getPollById(uint id) public view returns (Poll memory){\r\n        uint index = id -1;\r\n        require(polls[index].created == true,\"The Poll requested does not exist\");\r\n        return polls[index];\r\n    }\r\n\r\n    function deletePoll(uint id) external returns (bool){\r\n        uint index = id -1;\r\n        require(userContract_ref.getAdminUser(msg.sender).registered == true,\"User has to be registered\");\r\n        require(polls[index].created == true,\"The Poll requested does not exist\");\r\n        delete polls[index];\r\n        delete pollAnswers[id];\r\n        delete pollResults[id];\r\n        total_polls--;\r\n        return true;\r\n    }\r\n\r\n    function getAllPolls() public view returns (Poll[] memory){\r\n        return polls;\r\n    }\r\n\r\n    function getTotalPolls() public view returns (uint){\r\n        return total_polls;\r\n    }\r\n\r\n    receive() external payable {\r\n        revert();\r\n    }\r\n\r\n}",
  "sourcePath": "C:\\Users\\34631\\Desktop\\Gabriel\\UOC\\Master Seguretat\\TFM\\DApp\\public-administration\\truffle\\contracts\\3_Poll.sol",
  "compiler": {
    "name": "solc",
    "version": "0.8.7+commit.e28d00a7.Emscripten.clang"
  },
  "schemaVersion": "3.4.3",
  "updatedAt": "2022-05-11T08:48:26.724Z",
  "devdoc": {
    "kind": "dev",
    "methods": {},
    "version": 1
  },
  "userdoc": {
    "kind": "user",
    "methods": {},
    "version": 1
  }
}