{
  "contractName": "SocialContract",
  "abi": [
    {
      "inputs": [
        {
          "internalType": "contract UserContract",
          "name": "_addrUserContract",
          "type": "address"
        }
      ],
      "stateMutability": "nonpayable",
      "type": "constructor"
    },
    {
      "stateMutability": "payable",
      "type": "receive",
      "payable": true
    },
    {
      "inputs": [],
      "name": "transferFunds",
      "outputs": [
        {
          "internalType": "bool",
          "name": "",
          "type": "bool"
        }
      ],
      "stateMutability": "payable",
      "type": "function",
      "payable": true
    },
    {
      "inputs": [],
      "name": "getContractBalance",
      "outputs": [
        {
          "internalType": "uint256",
          "name": "",
          "type": "uint256"
        }
      ],
      "stateMutability": "view",
      "type": "function",
      "constant": true
    },
    {
      "inputs": [
        {
          "internalType": "string",
          "name": "title",
          "type": "string"
        },
        {
          "internalType": "string",
          "name": "description",
          "type": "string"
        },
        {
          "internalType": "uint256",
          "name": "creationDate",
          "type": "uint256"
        },
        {
          "internalType": "uint256",
          "name": "tokens",
          "type": "uint256"
        },
        {
          "internalType": "string",
          "name": "imageURL",
          "type": "string"
        },
        {
          "internalType": "enum SocialContract.SocialTypesEnum",
          "name": "condition_type",
          "type": "uint8"
        },
        {
          "internalType": "uint256",
          "name": "minRange",
          "type": "uint256"
        },
        {
          "internalType": "uint256",
          "name": "maxRange",
          "type": "uint256"
        },
        {
          "internalType": "string",
          "name": "param",
          "type": "string"
        }
      ],
      "name": "createSocialAid",
      "outputs": [
        {
          "internalType": "bool",
          "name": "",
          "type": "bool"
        }
      ],
      "stateMutability": "nonpayable",
      "type": "function"
    },
    {
      "inputs": [
        {
          "internalType": "uint256",
          "name": "id",
          "type": "uint256"
        }
      ],
      "name": "checkSocialAid",
      "outputs": [
        {
          "internalType": "bool",
          "name": "",
          "type": "bool"
        }
      ],
      "stateMutability": "nonpayable",
      "type": "function"
    },
    {
      "inputs": [
        {
          "internalType": "uint256",
          "name": "id",
          "type": "uint256"
        }
      ],
      "name": "recieveSocialAid",
      "outputs": [
        {
          "internalType": "bool",
          "name": "",
          "type": "bool"
        }
      ],
      "stateMutability": "nonpayable",
      "type": "function"
    },
    {
      "inputs": [],
      "name": "getAllSocialAids",
      "outputs": [
        {
          "components": [
            {
              "internalType": "uint256",
              "name": "id",
              "type": "uint256"
            },
            {
              "internalType": "bool",
              "name": "created",
              "type": "bool"
            },
            {
              "internalType": "address",
              "name": "creator",
              "type": "address"
            },
            {
              "internalType": "string",
              "name": "title",
              "type": "string"
            },
            {
              "internalType": "string",
              "name": "description",
              "type": "string"
            },
            {
              "internalType": "uint256",
              "name": "creationDate",
              "type": "uint256"
            },
            {
              "internalType": "uint256",
              "name": "tokens",
              "type": "uint256"
            },
            {
              "internalType": "string",
              "name": "imageURL",
              "type": "string"
            },
            {
              "components": [
                {
                  "internalType": "enum SocialContract.SocialTypesEnum",
                  "name": "condition_type",
                  "type": "uint8"
                },
                {
                  "internalType": "uint256",
                  "name": "minRange",
                  "type": "uint256"
                },
                {
                  "internalType": "uint256",
                  "name": "maxRange",
                  "type": "uint256"
                },
                {
                  "internalType": "string",
                  "name": "param",
                  "type": "string"
                }
              ],
              "internalType": "struct SocialContract.Condition",
              "name": "condition",
              "type": "tuple"
            }
          ],
          "internalType": "struct SocialContract.SocialAid[]",
          "name": "",
          "type": "tuple[]"
        }
      ],
      "stateMutability": "view",
      "type": "function",
      "constant": true
    },
    {
      "inputs": [
        {
          "internalType": "uint256",
          "name": "id",
          "type": "uint256"
        }
      ],
      "name": "getSocialAidById",
      "outputs": [
        {
          "components": [
            {
              "internalType": "uint256",
              "name": "id",
              "type": "uint256"
            },
            {
              "internalType": "bool",
              "name": "created",
              "type": "bool"
            },
            {
              "internalType": "address",
              "name": "creator",
              "type": "address"
            },
            {
              "internalType": "string",
              "name": "title",
              "type": "string"
            },
            {
              "internalType": "string",
              "name": "description",
              "type": "string"
            },
            {
              "internalType": "uint256",
              "name": "creationDate",
              "type": "uint256"
            },
            {
              "internalType": "uint256",
              "name": "tokens",
              "type": "uint256"
            },
            {
              "internalType": "string",
              "name": "imageURL",
              "type": "string"
            },
            {
              "components": [
                {
                  "internalType": "enum SocialContract.SocialTypesEnum",
                  "name": "condition_type",
                  "type": "uint8"
                },
                {
                  "internalType": "uint256",
                  "name": "minRange",
                  "type": "uint256"
                },
                {
                  "internalType": "uint256",
                  "name": "maxRange",
                  "type": "uint256"
                },
                {
                  "internalType": "string",
                  "name": "param",
                  "type": "string"
                }
              ],
              "internalType": "struct SocialContract.Condition",
              "name": "condition",
              "type": "tuple"
            }
          ],
          "internalType": "struct SocialContract.SocialAid",
          "name": "",
          "type": "tuple"
        }
      ],
      "stateMutability": "view",
      "type": "function",
      "constant": true
    },
    {
      "inputs": [
        {
          "internalType": "uint256",
          "name": "id",
          "type": "uint256"
        }
      ],
      "name": "deleteSocial",
      "outputs": [
        {
          "internalType": "bool",
          "name": "",
          "type": "bool"
        }
      ],
      "stateMutability": "nonpayable",
      "type": "function"
    },
    {
      "inputs": [],
      "name": "getTotalSocialAids",
      "outputs": [
        {
          "internalType": "uint256",
          "name": "",
          "type": "uint256"
        }
      ],
      "stateMutability": "view",
      "type": "function",
      "constant": true
    }
  ],
  "bytecode": "0x6080604052600160045534801561001557600080fd5b50604051620022f9380380620022f98339810160408190526100369161005b565b60008054600160a060020a031916600160a060020a039290921691909117905561008b565b60006020828403121561006d57600080fd5b8151600160a060020a038116811461008457600080fd5b9392505050565b61225e806200009b6000396000f3fe6080604052600436106100a7576000357c010000000000000000000000000000000000000000000000000000000090048063a72a0ebf11610076578063a72a0ebf14610128578063b9e9471614610148578063dd054be614610168578063f222ba0914610188578063f7a5f57f146101b557600080fd5b80631d7f94c1146100b65780633c68eb81146100da5780633edb581f146100f25780636f9fb98a1461011457600080fd5b366100b157600080fd5b600080fd5b3480156100c257600080fd5b506003545b6040519081526020015b60405180910390f35b6100e26101d5565b60405190151581526020016100d1565b3480156100fe57600080fd5b506101076102a5565b6040516100d19190611edd565b34801561012057600080fd5b5030316100c7565b34801561013457600080fd5b506100e2610143366004611ccb565b6105ec565b34801561015457600080fd5b506100e2610163366004611ccb565b610bd5565b34801561017457600080fd5b506100e2610183366004611ccb565b610dc6565b34801561019457600080fd5b506101a86101a3366004611ccb565b611103565b6040516100d1919061202f565b3480156101c157600080fd5b506100e26101d0366004611a14565b611486565b600080546040517f17f23b2e000000000000000000000000000000000000000000000000000000008152336004820152600160a060020a03909116906317f23b2e9060240160006040518083038186803b15801561023257600080fd5b505afa158015610246573d6000803e3d6000fd5b505050506040513d6000823e601f3d908101601f1916820160405261026e9190810190611af9565b60600151151560011461029f5760405160e560020a62461bcd02815260040161029690611f3e565b60405180910390fd5b50600190565b60606001805480602002602001604051908101604052809291908181526020016000905b828210156105e35760008481526020908190206040805161012081018252600b860290920180548352600181015460ff8116151594840194909452610100909304600160a060020a03169082015260028201805491929160608401919061032f9061216b565b80601f016020809104026020016040519081016040528092919081815260200182805461035b9061216b565b80156103a85780601f1061037d576101008083540402835291602001916103a8565b820191906000526020600020905b81548152906001019060200180831161038b57829003601f168201915b505050505081526020016003820180546103c19061216b565b80601f01602080910402602001604051908101604052809291908181526020018280546103ed9061216b565b801561043a5780601f1061040f5761010080835404028352916020019161043a565b820191906000526020600020905b81548152906001019060200180831161041d57829003601f168201915b5050505050815260200160048201548152602001600582015481526020016006820180546104679061216b565b80601f01602080910402602001604051908101604052809291908181526020018280546104939061216b565b80156104e05780601f106104b5576101008083540402835291602001916104e0565b820191906000526020600020905b8154815290600101906020018083116104c357829003601f168201915b50505091835250506040805160808101909152600783018054602090930192829060ff166002811115610515576105156121dd565b6002811115610526576105266121dd565b8152602001600182015481526020016002820154815260200160038201805461054e9061216b565b80601f016020809104026020016040519081016040528092919081815260200182805461057a9061216b565b80156105c75780601f1061059c576101008083540402835291602001916105c7565b820191906000526020600020905b8154815290600101906020018083116105aa57829003601f168201915b50505050508152505081525050815260200190600101906102c9565b50505050905090565b6000806105fa60018461210d565b60005460405160e260020a633e2e0e4f028152336004820152919250600160a060020a03169063f8b8393c9060240160006040518083038186803b15801561064157600080fd5b505afa158015610655573d6000803e3d6000fd5b505050506040513d6000823e601f3d908101601f1916820160405261067d9190810190611bd0565b6060015115156001146106a55760405160e560020a62461bcd02815260040161029690611ff8565b600181815481106106b8576106b86121f6565b600091825260209091206001600b9092020181015460ff161515146106f25760405160e560020a62461bcd02815260040161029690611f9b565b60008060018381548110610708576107086121f6565b600091825260209091206007600b90920201015460ff166002811115610730576107306121dd565b14156108415760018281548110610749576107496121f6565b90600052602060002090600b020160070160030160405160200161076d9190611e3e565b60408051808303601f1901815290829052805160209091012060005460e260020a633e2e0e4f0283523360048401529091600160a060020a039091169063f8b8393c9060240160006040518083038186803b1580156107cb57600080fd5b505afa1580156107df573d6000803e3d6000fd5b505050506040513d6000823e601f3d908101601f191682016040526108079190810190611bd0565b60a001515160405161081c9190602001611e22565b60405160208183030381529060405280519060200120141561083c575060015b610b56565b600260018381548110610856576108566121f6565b600091825260209091206007600b90920201015460ff16600281111561087e5761087e6121dd565b1415610a0b57600060018381548110610899576108996121f6565b600091825260208220600b919091020160080154905460405160e260020a633e2e0e4f028152336004820152600160a060020a039091169063f8b8393c9060240160006040518083038186803b1580156108f257600080fd5b505afa158015610906573d6000803e3d6000fd5b505050506040513d6000823e601f3d908101601f1916820160405261092e9190810190611bd0565b60a00151604001511015905060006001848154811061094f5761094f6121f6565b600091825260208220600b919091020160090154905460405160e260020a633e2e0e4f028152336004820152600160a060020a039091169063f8b8393c9060240160006040518083038186803b1580156109a857600080fd5b505afa1580156109bc573d6000803e3d6000fd5b505050506040513d6000823e601f3d908101601f191682016040526109e49190810190611bd0565b60a0015160400151111590508180156109fa5750805b15610a0457600192505b5050610b56565b6001808381548110610a1f57610a1f6121f6565b600091825260209091206007600b90920201015460ff166002811115610a4757610a476121dd565b1415610b565760018281548110610a6057610a606121f6565b90600052602060002090600b0201600701600301604051602001610a849190611e3e565b60408051808303601f1901815290829052805160209091012060005460e260020a633e2e0e4f0283523360048401529091600160a060020a039091169063f8b8393c9060240160006040518083038186803b158015610ae257600080fd5b505afa158015610af6573d6000803e3d6000fd5b505050506040513d6000823e601f3d908101601f19168201604052610b1e9190810190611bd0565b60a0015160200151604051602001610b369190611e22565b604051602081830303815290604052805190602001201415610b56575060015b80610ba65760405160e560020a62461bcd02815260206004820152601860248201527f436865636b20636f6e646974696f6e73206661696c65642e00000000000000006044820152606401610296565b5060009081526002602090815260408083203384529091529020805461ff001916610100179055506001919050565b600080610be360018461210d565b6000546040517f17f23b2e000000000000000000000000000000000000000000000000000000008152336004820152919250600160a060020a0316906317f23b2e9060240160006040518083038186803b158015610c4057600080fd5b505afa158015610c54573d6000803e3d6000fd5b505050506040513d6000823e601f3d908101601f19168201604052610c7c9190810190611af9565b606001511515600114610ca45760405160e560020a62461bcd02815260040161029690611ff8565b60018181548110610cb757610cb76121f6565b600091825260209091206001600b9092020181015460ff16151514610cf15760405160e560020a62461bcd02815260040161029690611f9b565b60018181548110610d0457610d046121f6565b600091825260208220600b9091020181815560018101805474ffffffffffffffffffffffffffffffffffffffffff1916905590610d446002830182611754565b610d52600383016000611754565b60048201600090556005820160009055600682016000610d729190611754565b60078201805460ff1916815560006008840181905560098401819055610d9b600a850182611754565b5050506000848152600260205260038054925090610db883612154565b909155506001949350505050565b600080610dd460018461210d565b60005460405160e260020a633e2e0e4f028152336004820152919250600160a060020a03169063f8b8393c9060240160006040518083038186803b158015610e1b57600080fd5b505afa158015610e2f573d6000803e3d6000fd5b505050506040513d6000823e601f3d908101601f19168201604052610e579190810190611bd0565b606001511515600114610e7f5760405160e560020a62461bcd02815260040161029690611ff8565b60018181548110610e9257610e926121f6565b600091825260209091206001600b9092020181015460ff16151514610ecc5760405160e560020a62461bcd02815260040161029690611f9b565b600081815260026020908152604080832033845290915290205460ff610100909104161515600114610f695760405160e560020a62461bcd02815260206004820152602a60248201527f54686520536f6369616c416964206973206e6f742061737369676e656420746f60448201527f20746869732075736572000000000000000000000000000000000000000000006064820152608401610296565b600081815260026020908152604080832033845290915290205460ff1615610ffc5760405160e560020a62461bcd02815260206004820152603460248201527f54686520536f6369616c4169642068617320616c7265616479206265656e207260448201527f6563696576656420746f207468697320757365720000000000000000000000006064820152608401610296565b600033600160a060020a03166001838154811061101b5761101b6121f6565b90600052602060002090600b020160050154678ac7230489e8000061104091906120ee565b604051600081818185875af1925050503d806000811461107c576040519150601f19603f3d011682016040523d82523d6000602084013e611081565b606091505b50509050806110d55760405160e560020a62461bcd02815260206004820152601060248201527f5472616e73666572206661696c65642e000000000000000000000000000000006044820152606401610296565b5060009081526002602090815260408083203384529091529020805460ff1916600190811790915592915050565b61110b611791565b600061111860018461210d565b90506001818154811061112d5761112d6121f6565b600091825260209091206001600b9092020181015460ff161515146111675760405160e560020a62461bcd02815260040161029690611f9b565b6001818154811061117a5761117a6121f6565b60009182526020918290206040805161012081018252600b9390930290910180548352600181015460ff8116151594840194909452610100909304600160a060020a0316908201526002820180549192916060840191906111da9061216b565b80601f01602080910402602001604051908101604052809291908181526020018280546112069061216b565b80156112535780601f1061122857610100808354040283529160200191611253565b820191906000526020600020905b81548152906001019060200180831161123657829003601f168201915b5050505050815260200160038201805461126c9061216b565b80601f01602080910402602001604051908101604052809291908181526020018280546112989061216b565b80156112e55780601f106112ba576101008083540402835291602001916112e5565b820191906000526020600020905b8154815290600101906020018083116112c857829003601f168201915b5050505050815260200160048201548152602001600582015481526020016006820180546113129061216b565b80601f016020809104026020016040519081016040528092919081815260200182805461133e9061216b565b801561138b5780601f106113605761010080835404028352916020019161138b565b820191906000526020600020905b81548152906001019060200180831161136e57829003601f168201915b50505091835250506040805160808101909152600783018054602090930192829060ff1660028111156113c0576113c06121dd565b60028111156113d1576113d16121dd565b815260200160018201548152602001600282015481526020016003820180546113f99061216b565b80601f01602080910402602001604051908101604052809291908181526020018280546114259061216b565b80156114725780601f1061144757610100808354040283529160200191611472565b820191906000526020600020905b81548152906001019060200180831161145557829003601f168201915b505050919092525050509052509392505050565b600080546040517f17f23b2e000000000000000000000000000000000000000000000000000000008152336004820152600160a060020a03909116906317f23b2e9060240160006040518083038186803b1580156114e357600080fd5b505afa1580156114f7573d6000803e3d6000fd5b505050506040513d6000823e601f3d908101601f1916820160405261151f9190810190611af9565b6060015115156001146115475760405160e560020a62461bcd02815260040161029690611f3e565b60006040518060800160405280876002811115611566576115666121dd565b81526020018681526020018581526020018481525090506001604051806101200160405280600454815260200160011515815260200133600160a060020a031681526020018d81526020018c81526020018b81526020018a81526020018981526020018381525090806001815401808255809150506001900390600052602060002090600b02016000909190919091506000820151816000015560208201518160010160006101000a81548160ff02191690831515021790555060408201518160010160016101000a815481600160a060020a030219169083600160a060020a031602179055506060820151816002019080519060200190611669929190611811565b5060808201518051611685916003840191602090910190611811565b5060a0820151600482015560c0820151600582015560e082015180516116b5916006840191602090910190611811565b506101008201518051600783018054909190829060ff191660018360028111156116e1576116e16121dd565b0217905550602082810151600183015560408301516002830155606083015180516117129260038501920190611811565b5050600380549350915060009050611729836121a9565b90915550506004805490600061173e836121a9565b9091555060019c9b505050505050505050505050565b5080546117609061216b565b6000825580601f10611770575050565b601f01602090049060005260206000209081019061178e9190611895565b50565b604051806101200160405280600081526020016000151581526020016000600160a060020a03168152602001606081526020016060815260200160008152602001600081526020016060815260200161180c604080516080810190915280600081526020016000815260200160008152602001606081525090565b905290565b82805461181d9061216b565b90600052602060002090601f01602090048101928261183f5760008555611885565b82601f1061185857805160ff1916838001178555611885565b82800160010185558215611885579182015b8281111561188557825182559160200191906001019061186a565b50611891929150611895565b5090565b5b808211156118915760008155600101611896565b805180151581146118ba57600080fd5b919050565b8035600381106118ba57600080fd5b8051600281106118ba57600080fd5b600082601f8301126118ee57600080fd5b81356119016118fc826120c6565b612095565b81815284602083860101111561191657600080fd5b816020850160208301376000918101602001919091529392505050565b600082601f83011261194457600080fd5b81516119526118fc826120c6565b81815284602083860101111561196757600080fd5b611978826020830160208701612124565b949350505050565b60006060828403121561199257600080fd5b6040516060810167ffffffffffffffff82821081831117156119b6576119b661220f565b8160405282935084519150808211156119ce57600080fd5b6119da86838701611933565b835260208501519150808211156119f057600080fd5b506119fd85828601611933565b602083015250604083015160408201525092915050565b60008060008060008060008060006101208a8c031215611a3357600080fd5b893567ffffffffffffffff80821115611a4b57600080fd5b611a578d838e016118dd565b9a5060208c0135915080821115611a6d57600080fd5b611a798d838e016118dd565b995060408c0135985060608c0135975060808c0135915080821115611a9d57600080fd5b611aa98d838e016118dd565b9650611ab760a08d016118bf565b955060c08c0135945060e08c013593506101008c0135915080821115611adc57600080fd5b50611ae98c828d016118dd565b9150509295985092959850929598565b600060208284031215611b0b57600080fd5b815167ffffffffffffffff80821115611b2357600080fd5b9083019060a08286031215611b3757600080fd5b611b3f612049565b825182811115611b4e57600080fd5b611b5a87828601611933565b825250602083015182811115611b6f57600080fd5b611b7b87828601611933565b602083015250604083015182811115611b9357600080fd5b611b9f87828601611933565b604083015250611bb1606084016118aa565b6060820152611bc2608084016118ce565b608082015295945050505050565b600060208284031215611be257600080fd5b815167ffffffffffffffff80821115611bfa57600080fd5b9083019060c08286031215611c0e57600080fd5b611c16612072565b825182811115611c2557600080fd5b611c3187828601611933565b825250602083015182811115611c4657600080fd5b611c5287828601611933565b602083015250604083015182811115611c6a57600080fd5b611c7687828601611933565b604083015250611c88606084016118aa565b6060820152611c99608084016118ce565b608082015260a083015182811115611cb057600080fd5b611cbc87828601611980565b60a08301525095945050505050565b600060208284031215611cdd57600080fd5b5035919050565b60008151808452611cfc816020860160208601612124565b601f01601f19169290920160200192915050565b6000815160038110611d355760e060020a634e487b7102600052602160045260246000fd5b8084525060208201516020840152604082015160408401526060820151608060608501526119786080850182611ce4565b6000610120825184526020830151611d82602086018215159052565b506040830151611d9d6040860182600160a060020a03169052565b506060830151816060860152611db582860182611ce4565b91505060808301518482036080860152611dcf8282611ce4565b91505060a083015160a085015260c083015160c085015260e083015184820360e0860152611dfd8282611ce4565b9150506101008084015185830382870152611e188382611d10565b9695505050505050565b60008251611e34818460208701612124565b9190910192915050565b8154600090819060028104600180831680611e5a57607f831692505b6020808410821415611e7d5760e060020a634e487b710286526022600452602486fd5b818015611e915760018114611ea257611ecf565b60ff19861689528489019650611ecf565b60008a81526020902060005b86811015611ec75781548b820152908501908301611eae565b505084890196505b509498975050505050505050565b600060208083018184528085518083526040860191506040848202870101925083870160005b82811015611f3157603f19888603018452611f1f858351611d66565b94509285019290850190600101611f03565b5092979650505050505050565b60208082526021908201527f557365722068617320746f206265206120726567697374657265642061646d6960408201527f6e00000000000000000000000000000000000000000000000000000000000000606082015260800190565b60208082526026908201527f54686520536f6369616c4169642072657175657374656420646f6573206e6f7460408201527f2065786973740000000000000000000000000000000000000000000000000000606082015260800190565b60208082526019908201527f557365722068617320746f206265207265676973746572656400000000000000604082015260600190565b6020815260006120426020830184611d66565b9392505050565b60405160a0810167ffffffffffffffff8111828210171561206c5761206c61220f565b60405290565b60405160c0810167ffffffffffffffff8111828210171561206c5761206c61220f565b604051601f8201601f1916810167ffffffffffffffff811182821017156120be576120be61220f565b604052919050565b600067ffffffffffffffff8211156120e0576120e061220f565b50601f01601f191660200190565b6000816000190483118215151615612108576121086121c4565b500290565b60008282101561211f5761211f6121c4565b500390565b60005b8381101561213f578181015183820152602001612127565b8381111561214e576000848401525b50505050565b600081612163576121636121c4565b506000190190565b60028104600182168061217f57607f821691505b602082108114156121a35760e060020a634e487b7102600052602260045260246000fd5b50919050565b60006000198214156121bd576121bd6121c4565b5060010190565b60e060020a634e487b7102600052601160045260246000fd5b60e060020a634e487b7102600052602160045260246000fd5b60e060020a634e487b7102600052603260045260246000fd5b60e060020a634e487b7102600052604160045260246000fdfea264697066735822122085c88c1d2f8d57e39300cb09c4f4c6253a612dda2b88ff53851b1b2daac91baf64736f6c63430008070033",
  "immutableReferences": {},
  "source": "// SPDX-License-Identifier: GPL-3.0\r\npragma solidity >=0.8.0 <0.9.0;\r\n\r\nimport \"./2_User.sol\";\r\n\r\ncontract SocialContract {\r\n\r\n    UserContract private userContract_ref;\r\n\r\n    constructor(UserContract _addrUserContract) {\r\n        userContract_ref = _addrUserContract;\r\n    }\r\n\r\n    struct SocialAid {\r\n        uint id;\r\n        bool created;\r\n        address creator;\r\n        string title;\r\n        string description;\r\n        uint creationDate;\r\n        uint tokens;\r\n        string imageURL;\r\n        Condition condition;\r\n    }\r\n\r\n    struct Condition {\r\n        SocialTypesEnum condition_type;\r\n        uint minRange;\r\n        uint maxRange;\r\n        string param;\r\n    }\r\n\r\n    enum SocialTypesEnum {\r\n        GENDER, SALARY, AGE\r\n    }\r\n\r\n    struct UserSocialAidAssigned {\r\n        bool recieved;\r\n        bool conditionsReached;\r\n    }\r\n\r\n    struct SocialAidAssigned {\r\n        mapping(address => UserSocialAidAssigned) asignations;\r\n    }\r\n\r\n    //SocialAid.id => index array socialAids\r\n    SocialAid[] socialAids;\r\n    //SocialAid.id => SocialAidAssigned\r\n    mapping(uint => SocialAidAssigned) socialAidAssignations;\r\n    uint total_social;\r\n    uint social_id_increment = 1;\r\n    \r\n\r\n    function transferFunds() public payable returns (bool){\r\n        require(userContract_ref.getAdminUser(msg.sender).registered == true,\"User has to be a registered admin\");\r\n        return true;\r\n    }\r\n\r\n    function getContractBalance() public view returns (uint){\r\n        return address(this).balance;\r\n    }\r\n\r\n    function createSocialAid(string memory title, string memory description, uint creationDate, uint tokens, string memory imageURL, SocialTypesEnum condition_type\r\n    , uint minRange, uint maxRange, string memory param) external returns (bool){\r\n        require(userContract_ref.getAdminUser(msg.sender).registered == true,\"User has to be a registered admin\");\r\n\r\n        Condition memory condition = Condition(condition_type, minRange, maxRange, param);\r\n        socialAids.push(SocialAid(social_id_increment, true, msg.sender, title, description, creationDate, tokens, imageURL, condition));\r\n        total_social ++;\r\n        social_id_increment ++;\r\n        return true;\r\n    }\r\n\r\n    function checkSocialAid(uint id) external returns (bool){\r\n        uint index = id - 1;\r\n        require(userContract_ref.getClientUser(msg.sender).registered == true,\"User has to be registered\");\r\n        require(socialAids[index].created == true,\"The SocialAid requested does not exist\");\r\n\r\n        bool accepted = false;\r\n        if (socialAids[index].condition.condition_type == SocialTypesEnum.GENDER){\r\n            if(keccak256(abi.encodePacked(userContract_ref.getClientUser(msg.sender).socialParams.gender)) == keccak256(abi.encodePacked(socialAids[index].condition.param))){\r\n                accepted = true;\r\n            }\r\n        }else if (socialAids[index].condition.condition_type == SocialTypesEnum.AGE){\r\n            bool minRange = userContract_ref.getClientUser(msg.sender).socialParams.age >= socialAids[index].condition.minRange;\r\n            bool maxRange = userContract_ref.getClientUser(msg.sender).socialParams.age <= socialAids[index].condition.maxRange;\r\n            if(minRange && maxRange){ accepted = true; }\r\n        }else if (socialAids[index].condition.condition_type == SocialTypesEnum.SALARY){\r\n            if(keccak256(abi.encodePacked(userContract_ref.getClientUser(msg.sender).socialParams.salary)) == keccak256(abi.encodePacked(socialAids[index].condition.param))){\r\n                accepted = true;\r\n            }\r\n        }\r\n        require(accepted, \"Check conditions failed.\");      \r\n        socialAidAssignations[index].asignations[msg.sender].conditionsReached = true;\r\n        return true;\r\n    }\r\n\r\n    function recieveSocialAid(uint id) external returns (bool){\r\n        uint index = id - 1;\r\n        require(userContract_ref.getClientUser(msg.sender).registered == true,\"User has to be registered\");\r\n        require(socialAids[index].created == true,\"The SocialAid requested does not exist\");\r\n        require(socialAidAssignations[index].asignations[msg.sender].conditionsReached == true,\"The SocialAid is not assigned to this user\");\r\n        require(socialAidAssignations[index].asignations[msg.sender].recieved == false,\"The SocialAid has already been recieved to this user\");\r\n\r\n        (bool success, ) = msg.sender.call{value: socialAids[index].tokens*10000000000000000000}(\"\");\r\n        require(success, \"Transfer failed.\");   \r\n        socialAidAssignations[index].asignations[msg.sender].recieved = true;\r\n        return true;\r\n    }\r\n\r\n    function getAllSocialAids() public view returns (SocialAid[] memory){\r\n        return socialAids;\r\n    }\r\n\r\n    function getSocialAidById(uint id) public view returns (SocialAid memory){\r\n        uint index = id -1;\r\n        require(socialAids[index].created == true,\"The SocialAid requested does not exist\");\r\n        return socialAids[index];\r\n    }\r\n\r\n    function deleteSocial(uint id) external returns (bool){\r\n        uint index = id - 1;\r\n        require(userContract_ref.getAdminUser(msg.sender).registered == true,\"User has to be registered\");\r\n        require(socialAids[index].created == true,\"The SocialAid requested does not exist\");\r\n        delete socialAids[index];\r\n        delete socialAidAssignations[id];\r\n        total_social --;\r\n        return true;\r\n    }\r\n\r\n    function getTotalSocialAids() public view returns (uint){\r\n        return total_social;\r\n    }\r\n\r\n    receive() external payable {\r\n        revert();\r\n    }\r\n\r\n}",
  "sourcePath": "C:\\Users\\34631\\Desktop\\Gabriel\\UOC\\Master Seguretat\\TFM\\DApp\\public-administration\\truffle\\contracts\\4_Social.sol",
  "compiler": {
    "name": "solc",
    "version": "0.8.7+commit.e28d00a7.Emscripten.clang"
  },
  "schemaVersion": "3.4.3",
  "updatedAt": "2022-05-21T08:03:39.023Z",
  "networkType": "ethereum",
  "devdoc": {
    "kind": "dev",
    "methods": {},
    "version": 1
  },
  "userdoc": {
    "kind": "user",
    "methods": {},
    "version": 1
  }
}