{
  "contractName": "UserContract",
  "abi": [
    {
      "stateMutability": "payable",
      "type": "receive",
      "payable": true
    },
    {
      "inputs": [
        {
          "internalType": "string",
          "name": "name",
          "type": "string"
        },
        {
          "internalType": "string",
          "name": "surname",
          "type": "string"
        },
        {
          "internalType": "string",
          "name": "dni",
          "type": "string"
        }
      ],
      "name": "registerAdminUser",
      "outputs": [
        {
          "internalType": "bool",
          "name": "",
          "type": "bool"
        }
      ],
      "stateMutability": "payable",
      "type": "function",
      "payable": true
    },
    {
      "inputs": [
        {
          "internalType": "string",
          "name": "name",
          "type": "string"
        },
        {
          "internalType": "string",
          "name": "surname",
          "type": "string"
        },
        {
          "internalType": "string",
          "name": "dni",
          "type": "string"
        },
        {
          "internalType": "string",
          "name": "gender",
          "type": "string"
        },
        {
          "internalType": "string",
          "name": "salary",
          "type": "string"
        },
        {
          "internalType": "uint256",
          "name": "age",
          "type": "uint256"
        }
      ],
      "name": "registerUser",
      "outputs": [
        {
          "internalType": "bool",
          "name": "",
          "type": "bool"
        }
      ],
      "stateMutability": "payable",
      "type": "function",
      "payable": true
    },
    {
      "inputs": [
        {
          "internalType": "string",
          "name": "name",
          "type": "string"
        },
        {
          "internalType": "string",
          "name": "surname",
          "type": "string"
        },
        {
          "internalType": "string",
          "name": "dni",
          "type": "string"
        },
        {
          "internalType": "string",
          "name": "gender",
          "type": "string"
        },
        {
          "internalType": "string",
          "name": "salary",
          "type": "string"
        },
        {
          "internalType": "uint256",
          "name": "age",
          "type": "uint256"
        }
      ],
      "name": "editClientUser",
      "outputs": [
        {
          "internalType": "bool",
          "name": "",
          "type": "bool"
        }
      ],
      "stateMutability": "nonpayable",
      "type": "function"
    },
    {
      "inputs": [
        {
          "internalType": "string",
          "name": "name",
          "type": "string"
        },
        {
          "internalType": "string",
          "name": "surname",
          "type": "string"
        },
        {
          "internalType": "string",
          "name": "dni",
          "type": "string"
        }
      ],
      "name": "editAdminUser",
      "outputs": [
        {
          "internalType": "bool",
          "name": "",
          "type": "bool"
        }
      ],
      "stateMutability": "nonpayable",
      "type": "function"
    },
    {
      "inputs": [],
      "name": "deleteClientUser",
      "outputs": [
        {
          "internalType": "bool",
          "name": "",
          "type": "bool"
        }
      ],
      "stateMutability": "nonpayable",
      "type": "function"
    },
    {
      "inputs": [],
      "name": "deleteAdminUser",
      "outputs": [
        {
          "internalType": "bool",
          "name": "",
          "type": "bool"
        }
      ],
      "stateMutability": "nonpayable",
      "type": "function"
    },
    {
      "inputs": [
        {
          "internalType": "address",
          "name": "addr",
          "type": "address"
        }
      ],
      "name": "getClientUser",
      "outputs": [
        {
          "components": [
            {
              "internalType": "string",
              "name": "name",
              "type": "string"
            },
            {
              "internalType": "string",
              "name": "surname",
              "type": "string"
            },
            {
              "internalType": "string",
              "name": "dni",
              "type": "string"
            },
            {
              "internalType": "bool",
              "name": "registered",
              "type": "bool"
            },
            {
              "internalType": "enum UserContract.UserRoles",
              "name": "role",
              "type": "uint8"
            },
            {
              "components": [
                {
                  "internalType": "string",
                  "name": "gender",
                  "type": "string"
                },
                {
                  "internalType": "string",
                  "name": "salary",
                  "type": "string"
                },
                {
                  "internalType": "uint256",
                  "name": "age",
                  "type": "uint256"
                }
              ],
              "internalType": "struct UserContract.SocialParams",
              "name": "socialParams",
              "type": "tuple"
            }
          ],
          "internalType": "struct UserContract.ClientUser",
          "name": "",
          "type": "tuple"
        }
      ],
      "stateMutability": "view",
      "type": "function",
      "constant": true
    },
    {
      "inputs": [
        {
          "internalType": "address",
          "name": "addr",
          "type": "address"
        }
      ],
      "name": "getAdminUser",
      "outputs": [
        {
          "components": [
            {
              "internalType": "string",
              "name": "name",
              "type": "string"
            },
            {
              "internalType": "string",
              "name": "surname",
              "type": "string"
            },
            {
              "internalType": "string",
              "name": "dni",
              "type": "string"
            },
            {
              "internalType": "bool",
              "name": "registered",
              "type": "bool"
            },
            {
              "internalType": "enum UserContract.UserRoles",
              "name": "role",
              "type": "uint8"
            }
          ],
          "internalType": "struct UserContract.AdminUser",
          "name": "",
          "type": "tuple"
        }
      ],
      "stateMutability": "view",
      "type": "function",
      "constant": true
    },
    {
      "inputs": [],
      "name": "getTotalUsers",
      "outputs": [
        {
          "internalType": "uint256",
          "name": "",
          "type": "uint256"
        }
      ],
      "stateMutability": "view",
      "type": "function",
      "constant": true
    },
    {
      "inputs": [],
      "name": "getTotalAdminUsers",
      "outputs": [
        {
          "internalType": "uint256",
          "name": "",
          "type": "uint256"
        }
      ],
      "stateMutability": "view",
      "type": "function",
      "constant": true
    }
  ],
  "bytecode": "0x608060405234801561001057600080fd5b506114a1806100206000396000f3fe6080604052600436106100b2576000357c0100000000000000000000000000000000000000000000000000000000900480638908e190116100765780638908e1901461016e5780638f9edbe91461018e5780639be572f6146101a35780639c0e7b6e146101b8578063f8b8393c146101cb57600080fd5b806317f23b2e146100c1578063418343d8146100f75780634e962d9314610127578063743ed8111461014657806376a0a78e1461015b57600080fd5b366100bc57600080fd5b600080fd5b3480156100cd57600080fd5b506100e16100dc366004611019565b6101f8565b6040516100ee9190611261565b60405180910390f35b34801561010357600080fd5b50610117610112366004611056565b61042d565b60405190151581526020016100ee565b34801561013357600080fd5b506003545b6040519081526020016100ee565b34801561015257600080fd5b50610117610515565b610117610169366004611056565b610607565b34801561017a57600080fd5b506101176101893660046110de565b61072e565b34801561019a57600080fd5b5061011761086a565b3480156101af57600080fd5b50600254610138565b6101176101c63660046110de565b610927565b3480156101d757600080fd5b506101eb6101e6366004611019565b610a97565b6040516100ee91906112e2565b610200610e10565b73ffffffffffffffffffffffffffffffffffffffff821660009081526001602052604090819020815160a0810190925280548290829061023f906113c7565b80601f016020809104026020016040519081016040528092919081815260200182805461026b906113c7565b80156102b85780601f1061028d576101008083540402835291602001916102b8565b820191906000526020600020905b81548152906001019060200180831161029b57829003601f168201915b505050505081526020016001820180546102d1906113c7565b80601f01602080910402602001604051908101604052809291908181526020018280546102fd906113c7565b801561034a5780601f1061031f5761010080835404028352916020019161034a565b820191906000526020600020905b81548152906001019060200180831161032d57829003601f168201915b50505050508152602001600282018054610363906113c7565b80601f016020809104026020016040519081016040528092919081815260200182805461038f906113c7565b80156103dc5780601f106103b1576101008083540402835291602001916103dc565b820191906000526020600020905b8154815290600101906020018083116103bf57829003601f168201915b5050509183525050600382015460ff8082161515602084015260409092019161010090910416600181111561041357610413611439565b600181111561042457610424611439565b90525092915050565b33600090815260016020819052604082206003015460ff1615151461049c5760405160e560020a62461bcd02815260206004820152601f60248201527f41646d696e20757365722068617320746f20626520726567697374657265640060448201526064015b60405180910390fd5b33600090815260016020908152604090912085516104bc92870190610e51565b5033600090815260016020818152604090922085516104e393919092019190860190610e51565b50336000908152600160209081526040909120835161050a92600290920191850190610e51565b506001949350505050565b3360009081526020819052604081206003015460ff16151560011461057f5760405160e560020a62461bcd02815260206004820152601960248201527f557365722068617320746f2062652072656769737465726564000000000000006044820152606401610493565b336000908152602081905260408120906105998282610ed5565b6105a7600183016000610ed5565b6105b5600283016000610ed5565b60038201805461ffff191690556004820160006105d28282610ed5565b6105e0600183016000610ed5565b5060006002918201819055815493509091506105fb836113b0565b91905055506001905090565b3360009081526001602052604081206003015460ff161561063d5760405160e560020a62461bcd0281526004016104939061122a565b3360009081526020819052604090206003015460ff16156106735760405160e560020a62461bcd0281526004016104939061122a565b33600090815260016020818152604090922060038101805460ff191690921790915585516106a392870190610e51565b5033600090815260016020818152604090922085516106ca93919092019190860190610e51565b5033600090815260016020908152604090912083516106f192600290920191850190610e51565b503360009081526001602052604081206003908101805461ff00191661010017905580549161071f83611405565b90915550600195945050505050565b3360009081526020819052604081206003015460ff1615156001146107985760405160e560020a62461bcd02815260206004820152601960248201527f557365722068617320746f2062652072656769737465726564000000000000006044820152606401610493565b3360009081526020818152604090912088516107b6928a0190610e51565b503360009081526020818152604090912087516107db92600190920191890190610e51565b5033600090815260208181526040909120865161080092600290920191880190610e51565b5033600090815260208181526040909120855161082592600490920191870190610e51565b5033600090815260208181526040909120845161084a92600590920191860190610e51565b505033600090815260208190526040902060060155506001949350505050565b33600090815260016020819052604082206003015460ff161515146108d45760405160e560020a62461bcd02815260206004820152601f60248201527f41646d696e20757365722068617320746f2062652072656769737465726564006044820152606401610493565b336000908152600160205260408120906108ee8282610ed5565b6108fc600183016000610ed5565b61090a600283016000610ed5565b506003908101805461ffff1916905580549060006105fb836113b0565b3360009081526001602052604081206003015460ff161561095d5760405160e560020a62461bcd0281526004016104939061122a565b3360009081526020819052604090206003015460ff16156109935760405160e560020a62461bcd0281526004016104939061122a565b3360009081526020818152604090912060038101805460ff1916600117905588516109c0928a0190610e51565b503360009081526020818152604090912087516109e592600190920191890190610e51565b50336000908152602081815260409091208651610a0a92600290920191880190610e51565b50336000908152602081815260409091208551610a2f92600490920191870190610e51565b50336000908152602081815260409091208451610a5492600590920191860190610e51565b5033600090815260208190526040812060068101849055600301805461ff00191690556002805491610a8583611405565b90915550600198975050505050505050565b610a9f610f12565b73ffffffffffffffffffffffffffffffffffffffff821660009081526020819052604090819020815160c08101909252805482908290610ade906113c7565b80601f0160208091040260200160405190810160405280929190818152602001828054610b0a906113c7565b8015610b575780601f10610b2c57610100808354040283529160200191610b57565b820191906000526020600020905b815481529060010190602001808311610b3a57829003601f168201915b50505050508152602001600182018054610b70906113c7565b80601f0160208091040260200160405190810160405280929190818152602001828054610b9c906113c7565b8015610be95780601f10610bbe57610100808354040283529160200191610be9565b820191906000526020600020905b815481529060010190602001808311610bcc57829003601f168201915b50505050508152602001600282018054610c02906113c7565b80601f0160208091040260200160405190810160405280929190818152602001828054610c2e906113c7565b8015610c7b5780601f10610c5057610100808354040283529160200191610c7b565b820191906000526020600020905b815481529060010190602001808311610c5e57829003601f168201915b5050509183525050600382015460ff80821615156020840152604090920191610100909104166001811115610cb257610cb2611439565b6001811115610cc357610cc3611439565b815260200160048201604051806060016040529081600082018054610ce7906113c7565b80601f0160208091040260200160405190810160405280929190818152602001828054610d13906113c7565b8015610d605780601f10610d3557610100808354040283529160200191610d60565b820191906000526020600020905b815481529060010190602001808311610d4357829003601f168201915b50505050508152602001600182018054610d79906113c7565b80601f0160208091040260200160405190810160405280929190818152602001828054610da5906113c7565b8015610df25780601f10610dc757610100808354040283529160200191610df2565b820191906000526020600020905b815481529060010190602001808311610dd557829003601f168201915b50505050508152602001600282015481525050815250509050919050565b6040518060a0016040528060608152602001606081526020016060815260200160001515815260200160006001811115610e4c57610e4c611439565b905290565b828054610e5d906113c7565b90600052602060002090601f016020900481019282610e7f5760008555610ec5565b82601f10610e9857805160ff1916838001178555610ec5565b82800160010185558215610ec5579182015b82811115610ec5578251825591602001919060010190610eaa565b50610ed1929150610f77565b5090565b508054610ee1906113c7565b6000825580601f10610ef1575050565b601f016020900490600052602060002090810190610f0f9190610f77565b50565b6040518060c0016040528060608152602001606081526020016060815260200160001515815260200160006001811115610f4e57610f4e611439565b8152602001610e4c60405180606001604052806060815260200160608152602001600081525090565b5b80821115610ed15760008155600101610f78565b600082601f830112610f9d57600080fd5b813567ffffffffffffffff80821115610fb857610fb8611452565b604051601f8301601f19908116603f01168101908282118183101715610fe057610fe0611452565b81604052838152866020858801011115610ff957600080fd5b836020870160208301376000602085830101528094505050505092915050565b60006020828403121561102b57600080fd5b813573ffffffffffffffffffffffffffffffffffffffff8116811461104f57600080fd5b9392505050565b60008060006060848603121561106b57600080fd5b833567ffffffffffffffff8082111561108357600080fd5b61108f87838801610f8c565b945060208601359150808211156110a557600080fd5b6110b187838801610f8c565b935060408601359150808211156110c757600080fd5b506110d486828701610f8c565b9150509250925092565b60008060008060008060c087890312156110f757600080fd5b863567ffffffffffffffff8082111561110f57600080fd5b61111b8a838b01610f8c565b9750602089013591508082111561113157600080fd5b61113d8a838b01610f8c565b9650604089013591508082111561115357600080fd5b61115f8a838b01610f8c565b9550606089013591508082111561117557600080fd5b6111818a838b01610f8c565b9450608089013591508082111561119757600080fd5b506111a489828a01610f8c565b92505060a087013590509295509295509295565b600281106111d95760e060020a634e487b7102600052602160045260246000fd5b9052565b6000815180845260005b81811015611203576020818501810151868301820152016111e7565b81811115611215576000602083870101525b50601f01601f19169290920160200192915050565b60208082526018908201527f5573657220616c72656164792072656769737465726564210000000000000000604082015260600190565b602081526000825160a0602084015261127d60c08401826111dd565b90506020840151601f198085840301604086015261129b83836111dd565b92506040860151915080858403016060860152506112b982826111dd565b91505060608401511515608084015260808401516112da60a08501826111b8565b509392505050565b602081526000825160c060208401526112fe60e08401826111dd565b90506020840151601f198085840301604086015261131c83836111dd565b9250604086015191508085840301606086015261133983836111dd565b92506060860151151560808601526080860151915061135b60a08601836111b8565b60a08601519150808584030160c08601525080516060835261138060608401826111dd565b90506020820151838203602085015261139982826111dd565b604093840151949093019390935250949350505050565b6000816113bf576113bf611420565b506000190190565b6002810460018216806113db57607f821691505b602082108114156113ff5760e060020a634e487b7102600052602260045260246000fd5b50919050565b600060001982141561141957611419611420565b5060010190565b60e060020a634e487b7102600052601160045260246000fd5b60e060020a634e487b7102600052602160045260246000fd5b60e060020a634e487b7102600052604160045260246000fdfea2646970667358221220234cdc0db241c89d1fe74c67345edff215f0d3fa06649581bf2e59aa8efda62e64736f6c63430008070033",
  "immutableReferences": {},
  "source": "// SPDX-License-Identifier: GPL-3.0\r\npragma solidity >=0.8.0 <0.9.0;\r\n\r\ncontract UserContract {\r\n\r\n    struct ClientUser {\r\n        string name;\r\n        string surname;\r\n        string dni;\r\n        bool registered;\r\n        UserRoles role;\r\n        SocialParams socialParams;\r\n    }\r\n\r\n    struct AdminUser {\r\n        string name;\r\n        string surname;\r\n        string dni;\r\n        bool registered;\r\n        UserRoles role;\r\n    }\r\n\r\n    enum UserRoles {\r\n        CITIZEN, ADMIN\r\n    }\r\n\r\n    struct SocialParams {\r\n        string gender;\r\n        string salary;\r\n        uint age;\r\n    }\r\n\r\n    mapping(address => ClientUser) clientUsers;\r\n    mapping(address => AdminUser) adminUsers;\r\n\r\n    uint total_users;\r\n    uint total_admins;\r\n    \r\n    function registerAdminUser(string memory name, string memory surname, string memory dni) public payable returns (bool){\r\n        require(adminUsers[msg.sender].registered == false, \"User already registered!\");\r\n        require(clientUsers[msg.sender].registered == false, \"User already registered!\");\r\n\r\n        adminUsers[msg.sender].registered = true;\r\n        adminUsers[msg.sender].name = name;\r\n        adminUsers[msg.sender].surname = surname;\r\n        adminUsers[msg.sender].dni = dni;\r\n        adminUsers[msg.sender].role = UserRoles.ADMIN;\r\n\r\n        total_admins++;\r\n        return true;\r\n    }\r\n\r\n    function registerUser(string memory name, string memory surname, string memory dni, string memory gender, string memory salary, uint age) public payable returns (bool){\r\n        require(adminUsers[msg.sender].registered == false, \"User already registered!\");\r\n        require(clientUsers[msg.sender].registered == false, \"User already registered!\");\r\n\r\n        clientUsers[msg.sender].registered = true;\r\n        clientUsers[msg.sender].name = name;\r\n        clientUsers[msg.sender].surname = surname;\r\n        clientUsers[msg.sender].dni = dni;\r\n        clientUsers[msg.sender].socialParams.gender = gender;\r\n        clientUsers[msg.sender].socialParams.salary = salary;\r\n        clientUsers[msg.sender].socialParams.age = age;\r\n        clientUsers[msg.sender].role = UserRoles.CITIZEN;\r\n\r\n        total_users++;\r\n        return true;\r\n    }\r\n\r\n    function editClientUser(string memory name, string memory surname, string memory dni, string memory gender, string memory salary, uint age) external returns(bool) {\r\n        require(clientUsers[msg.sender].registered == true,\"User has to be registered\");\r\n        clientUsers[msg.sender].name = name;\r\n        clientUsers[msg.sender].surname = surname;\r\n        clientUsers[msg.sender].dni = dni;\r\n        clientUsers[msg.sender].socialParams.gender = gender;\r\n        clientUsers[msg.sender].socialParams.salary = salary;\r\n        clientUsers[msg.sender].socialParams.age = age;\r\n        return true;\r\n    }\r\n\r\n    function editAdminUser(string memory name, string memory surname, string memory dni) external returns(bool) {\r\n        require(adminUsers[msg.sender].registered == true,\"Admin user has to be registered\");\r\n        adminUsers[msg.sender].name = name;\r\n        adminUsers[msg.sender].surname = surname;\r\n        adminUsers[msg.sender].dni = dni;\r\n        return true;\r\n    }\r\n\r\n    function deleteClientUser() external returns(bool) {\r\n        require(clientUsers[msg.sender].registered == true,\"User has to be registered\");\r\n        delete clientUsers[msg.sender];\r\n        //TODO: Delete all social and polls?\r\n        total_users --;\r\n        return true;\r\n    }\r\n\r\n    function deleteAdminUser() external returns(bool) {\r\n        require(adminUsers[msg.sender].registered == true,\"Admin user has to be registered\");\r\n        delete adminUsers[msg.sender];\r\n        //TODO: Delete all social and polls?\r\n        total_admins --;\r\n        return true;\r\n    }\r\n\r\n    function getClientUser(address addr) public view returns (ClientUser memory){\r\n        // require(clientUsers[msg.sender].registered == true, \"User not registered!\");\r\n        return clientUsers[addr];\r\n    }\r\n\r\n    function getAdminUser(address addr) public view returns (AdminUser memory){\r\n        // require(adminUsers[msg.sender].registered == true, \"User not registered!\");\r\n        return adminUsers[addr];\r\n    }\r\n\r\n    function getTotalUsers() public view returns (uint){\r\n        return total_users;\r\n    }\r\n\r\n    function getTotalAdminUsers() public view returns (uint){\r\n        return total_admins;\r\n    }\r\n\r\n    receive() external payable {\r\n        revert();\r\n    }\r\n\r\n}",
  "sourcePath": "C:\\Users\\34631\\Desktop\\Gabriel\\UOC\\Master Seguretat\\TFM\\DApp\\public-administration\\truffle\\contracts\\2_User.sol",
  "compiler": {
    "name": "solc",
    "version": "0.8.7+commit.e28d00a7.Emscripten.clang"
  },
  "schemaVersion": "3.4.3",
  "updatedAt": "2022-05-21T08:03:38.995Z",
  "networkType": "ethereum",
  "devdoc": {
    "kind": "dev",
    "methods": {},
    "version": 1
  },
  "userdoc": {
    "kind": "user",
    "methods": {},
    "version": 1
  }
}